:100000000C94D5000C94FD000C94FD000C94FD00A4
:100010000C94FD000C94FD000C94FD000C94FD006C
:100020000C94FD000C94FD000C9466060C94D5060F
:100030000C94FD000C94FD000C94FD000C94FD004C
:100040000C94FD000C94FD000C94FD000C94FD003C
:100050000C94FD000C94FD000C94FD000C94070919
:100060000C94FD000C94FD000C94FD000C94FD001C
:100070000C94FD000C94FD000C94FD000C94FD000C
:100080000C94FD000C94FD000C94FD000C94FD00FC
:100090000C9451090C94FD000C94FD000C94FD008F
:1000A0000C94FD000C94FD000C94FD000000000079
:1000B0002300260029002C002F000000000024004F
:1000C00027002A002D003000000000002500280035
:1000D0002B002E0031000404040404030405020272
:1000E00002020403020202020606060606060404D1
:1000F0000202020404040802011040804010204063
:10010000804080080204018040201002011080100D
:10011000204040200000000200090F0000030401FD
:10012000000C0000000000000000000000000000C3
:10013000000000080B000202020000090400000198
:10014000020200000524001001052401010104241D
:10015000020605240600010705810310004009047A
:100160000100020A00000007050202400000070526
:1001700083024000000403090412010002EF02019F
:100180004041233680000101020301417264756918
:100190006E6F204C4C430041726475696E6F204C49
:1001A000656F6E6172646F002C0B11241FBECFEF60
:1001B000DAE0DEBFCDBF11E0A0E0B1E0EEEBFAE1A6
:1001C00002C005900D92AC34B107D9F722E0ACE43F
:1001D000B1E001C01D92A038B207E1F710E0C5ED13
:1001E000D0E004C02197FE010E942D0CC43DD10730
:1001F000C9F70E94930B0C945D0D0C940000FC0158
:100200008091DB01882311F13FB7F89482E080935D
:10021000E9002091F200822F90E01816190614F4DC
:1002200081E090E0882339F0289844E64093DA0191
:100230004091F1004083222339F02091F2002111F6
:1002400003C02BE62093E8003FBF08958FEF9FEF98
:1002500008952FB7F89483E08093E9009091E80027
:10026000892F807295FF04C09091F20080E4891B71
:100270002FBF08958091D20181110DC082E080933B
:10028000CE0184E08093CF011092D1011092D00171
:1002900081E08093D2018EEC91E008954091C801F5
:1002A0005091C9012091C6013091C70142175307EF
:1002B000B4F49091E8009570E1F39091E80092FD1C
:1002C00019C08093F1008091C8019091C9010196F5
:1002D0008F739927892B19F48EEF8093E800809112
:1002E000C8019091C90101969093C9018093C801FA
:1002F00081E0089580E00895EF92FF920F931F939D
:10030000CF93DF93F82E192FE62E042F81E0860F6E
:10031000880F0E944E0183E00E944E01CF2DD12F05
:10032000EC0EFD2EF11CCE15DF05B9F007FF13C052
:10033000FE0184910E944E01182F80E00E944E0120
:10034000812321968111EFCFDF91CF911F910F91E2
:10035000FF90EF9008958881EDCF81E0F5CFDF9297
:10036000EF92FF920F931F93CF93DF93D82E8A01C2
:10037000EB017B01E40EF51ECE15DF0559F0D7FE2B
:1003800012C0FE0184910E944E0121968111F4CF8A
:100390000FEF1FEFC801DF91CF911F910F91FF90D9
:1003A000EF90DF9008958881EECF0F931F93CF9346
:1003B000DF931F92CDB7DEB782E0898342E450E03D
:1003C00063E371E080E80E94AF010E943A01DC0122
:1003D00012960D911C910115110589F0D801ED912E
:1003E000FC910280F381E02DBE016F5F7F4FC80159
:1003F000099597FD04C0F80100851185ECCF89812E
:100400000F90DF91CF911F910F910895615030F0BF
:100410002091F100FC0120830196F8CF289884E612
:100420008093DA010895CF93DF931F92CDB7DEB7A3
:100430006983DC01ED91FC910280F381E02D41E0C4
:1004400050E0BE016F5F7F4F09950F90DF91CF9114
:10045000089583E08093E9008091F200882319F0E9
:100460008AE38093E80008950E94290190E00895AE
:10047000CF93DF931F92CDB7DEB7FC0184859585BE
:1004800097FD08C02FEF3FEF358724870F90DF914E
:10049000CF910895CE0101960E94FF00019719F4B3
:1004A000898190E0F3CF8FEF9FEFF0CF0F931F93F1
:1004B000CF93DF931F92CDB7DEB78C01FC0184850B
:1004C000958597FF0BC0CE0101960E94FF00019712
:1004D00071F4898190E0F80195878487F80184851B
:1004E00095850F90DF91CF911F910F9108958FEF18
:1004F0009FEFF1CFFC018485958597FD0BC09FB7D9
:10050000F89482E08093E9008091F2009FBF90E030
:10051000019608959FB7F89482E08093E900809156
:10052000F2009FBF90E00895282F30E0F901EC5EC3
:10053000FE4F9491F901EB50FF4F84912A523F4FA7
:10054000F9012491222309F430C09923E9F0915054
:100550009F30D0F4E92FF0E0E055FD4F0C942D0CC6
:10056000DE02E202BF02D602DA02C402C402C40200
:10057000E502EB02EF02F302F902C402FD029091E0
:1005800080009F7790938000E22FF0E0EE0FFF1F36
:10059000E853FF4FA591B4919FB7F894EC91611186
:1005A00032C080958E238C939FBF089590918000D8
:1005B0009F7DE8CF90918000977FE4CF94B59F779F
:1005C00094BDE2CF94B59F7DFBCF909190009F7733
:1005D00090939000D9CF909190009F7DF9CF90910A
:1005E0009000977FF5CF9091C0009F779093C000C7
:1005F000CBCF9091C0009F7DF9CF9091C200977FA3
:100600009093C200C1CF8E2BCECF8230910538F0AF
:10061000880F991F880F991F05970197F1F7089583
:100620003FB7F8948091C2019091C301A091C40199
:10063000B091C50126B5A89B05C02F3F19F00196C2
:10064000A11DB11D3FBFBA2FA92F982F8827BC012C
:10065000CD01620F711D811D911D42E0660F771F54
:10066000881F991F4A95D1F70895CF92DF92EF9294
:10067000FF920E9410036B017C010E9410036C1911
:100680007D098E099F09683E734081059105A8F395
:10069000FF90EF90DF90CF9008958F929F92AF924E
:1006A000BF92CF92DF92EF92FF920F931F93CF935F
:1006B000DF936C017B018A0180910B01882309F48F
:1006C00058C08091DB01882309F453C08091CC018C
:1006D00080FF05C08091E00082608093E000E80127
:1006E000B12C8AEFA82E93E0892E2AE3922E209730
:1006F00011F4BB20B9F10E942901811106C0AA940E
:10070000AA20B9F10E943503F2CF8C171D0611F013
:100710000CF08C2F9FB7F8948092E9002091E800AC
:1007200025FD02C09FBFE3CF282F30E0C21BD30BB3
:10073000F701815020F041914093F100FACFE20E91
:10074000F31EBB2021F09092E800B12CEBCF8091FA
:10075000E80085FDE7CF9092E800BB24B394209792
:1007600009F3F3CF5D9884E68093CB011016110650
:100770003CF081E090E0F6019383828310E000E09A
:10078000C801DF91CF911F910F91FF90EF90DF9003
:10079000CF90BF90AF909F908F9008952FB7F8940F
:1007A0006091BE017091BF018091C0019091C10123
:1007B0002FBF08950F931F93CF93DF93EC01EE8526
:1007C000FF85309709F009950E94CE036E837F83E1
:1007D000888799870A811B812C813D81DC01CB01AF
:1007E000800F911FA21FB31F8A879B87AC87BD878D
:1007F000DF91CF911F910F9108950F931F93FC01EB
:100800000285138524853585401B510B620B730BC4
:1008100080E077FF80891F910F910895FC0142834A
:1008200053836483758386819781A085B185840F06
:10083000951FA61FB71F82879387A487B587089542
:1008400020917301260F3327331F21323105ECF439
:1008500020919701FC0190E080E0243069F082E073
:100860000895A09173012191AC014D5A5E4FA40FE0
:10087000B52FB11D2C930196861798F380917301C3
:10088000680F6093730180E0089581E008950895F2
:100890008FEF9FEF08958FEF9FEF089580914C01A8
:1008A00090E09195819591090895CF93DF93CB01C5
:1008B000EA01642F0E942004CE01DF91CF910895B8
:1008C000CF93DF931F92CDB7DEB7698361E0CE018E
:1008D00001960E94200481E090E00F90DF91CF917B
:1008E00008959C01FC01EA5BFF4F9081D901AB5B4D
:1008F000BF4F8C91981750F4290F311DD90195964F
:100900002C9130E09F5F9083C90108952FEF3FEF56
:10091000FBCFFC01EA5BFF4FE081DC01AB5BBF4F2B
:100920002C91E21730F4E80FF92FF11D85A190E02A
:1009300008958FEF9FEF0895FC01EB5BFF4F20813F
:1009400031969081422F491B550BCA010895CF92D1
:10095000DF92EF92FF920F931F93CF93DF937C016F
:100960008A01EB016B01C40ED51ECC15DD0551F0DB
:100970006991D701ED91FC910190F081E02DC701C3
:100980000995F3CFC801DF91CF911F910F91FF908F
:10099000EF90DF90CF9008954F925F926F927F9289
:1009A0008F929F92AF92BF92CF92DF92EF92FF927F
:1009B0001F93CF93DF93EC01F62E8C8D8111BCC079
:1009C00018E08E858095F7FCC9C0E889F989908187
:1009D00089238083EC89FD8980819E85892B808392
:1009E0008D8D9E8D009711F00E940503EE89FF8981
:1009F00090818F858095892380838F8D882331F026
:100A0000EA89FB8980819F85892B808388A188233F
:100A1000C9F00E94CE034B015C01EA8DFB8D808101
:100A20009F85892379F40E94CE03681979098A0980
:100A30009B0949A05AA06BA07CA06415750586058A
:100A4000970558F38D8D9E8D009711F00E94050338
:100A5000EA89FB8990818F85809589238083EE893F
:100A6000FF8980819F85892B80838D8D9E8D009746
:100A700011F00E940503FF0C115009F0A2CFEC8980
:100A8000FD8990818E858095892380838F8D882331
:100A900031F0E889F98980819E85892B8083EE89F0
:100AA000FF8990818F858095892380838F8D88230E
:100AB00031F0EA89FB8980819F85892B808388A119
:100AC0008823C9F00E94CE036B017C01EA8DFB8D67
:100AD00080819F85892379F40E94CE036C197D095A
:100AE0008E099F0989A09AA0ABA0BCA068157905C2
:100AF0008A059B0558F38D8D9E8D009711F00E94FD
:100B00000503E88DF98D10818E851823EA89FB890C
:100B100090818F85809589238083EE89FF898081EC
:100B20009F85892B80838D8D9E8D009711F00E946B
:100B3000050311111FC01C8E81E090E0DF91CF9161
:100B40001F91FF90EF90DF90CF90BF90AF909F905C
:100B50008F907F906F905F904F900895EC89FD8902
:100B60009081892380838F8D882309F439CFE88988
:100B7000F98932CF82E08C8FDFCFFC0186E191E0F2
:100B800091838083178EA489B5899C9186858095F1
:100B900089238C93878D882331F0A089B1898C912A
:100BA0009685892B8C93A689B7899C91878580959A
:100BB00089238C93878D882331F0A289B3898C9106
:100BC0009785892B8C93089590E080E008951F937A
:100BD000CF93DF9385ED8093BC0080914F0190917E
:100BE0005001A0915101B09152010796A11DB11D74
:100BF00023E0B695A795979587952A95D1F72091EB
:100C0000BC0024FD03C01092970152C040914F01D7
:100C1000509150016091510170915201452B462B2A
:100C2000472B69F30097A105B10541F025E32A950B
:100C3000F1F700000197A109B109E1CF80914E01C0
:100C4000C1E0C0934D01882399F1D091B800109173
:100C5000BA008091BC008A7B8093BC0060E082E097
:100C60000E94940260E083E00E9494021092970137
:100C7000C09399011092980161E082E00E94940271
:100C800061E083E00E9494028091B9008E7F80939E
:100C9000B9008091B9008D7F8093B90088E480937A
:100CA000B80085E48093BC001093BA00D093B800DC
:100CB000DF91CF911F910895CF93DF93EC010E94B4
:100CC000BD05CE01DF91CF910C94CF0C1F920F92F6
:100CD0000FB60F9211248F939F938091E100909112
:100CE000E100937F9093E10083FF0FC01092E90031
:100CF00091E09093EB001092EC0092E39093ED0062
:100D00001092DB0198E09093F00082FF22C093E004
:100D10009093E9009091F200992319F09AE390934F
:100D2000E8009091CB01992341F09091CB01915033
:100D30009093CB01911101C05D9A9091DA019923B2
:100D400041F09091DA0191509093DA01911101C034
:100D5000289A84FF18C08091E2008E7E8160809383
:100D6000E2008091E1008F7E8093E1008091CC01D0
:100D70008E7E80618093CC019F918F910F900FBEEA
:100D80000F901F90189580FFF7CF8091E2008E7E24
:100D900080618093E2008091E1008E7E8093E1008B
:100DA0008091CC018E7E8160E5CF1F920F920FB6AD
:100DB0000F921124CF92DF92EF92FF920F931F9325
:100DC0002F933F934F935F936F937F938F939F9353
:100DD000AF93BF93EF93FF93CF93DF93CDB7DEB77E
:100DE0006C97DEBFCDBF1092E9008091E80083FFD1
:100DF00025C068E0CE0145960E94060282EF8093EE
:100E0000E8008D8987FF39C09091E80090FFFCCF02
:100E1000982F907609F034C19E894F89588D2F897B
:100E2000F88C911131C0803861F58091CD018093AB
:100E3000F1001092F1008EEF8093E8006C960FB6EF
:100E4000F894DEBF0FBECDBFDF91CF91FF91EF9140
:100E5000BF91AF919F918F917F916F915F914F91D2
:100E60003F912F911F910F91FF90EF90DF90CF90C6
:100E70000F900FBE0F901F9018959EEF9093E80073
:100E8000C7CF1092F100D5CF913059F48111D3CF53
:100E90004130510581F68091CD018D7F8093CD0148
:100EA000CACF933049F48111C6CF4130510519F6AC
:100EB0008091CD018260F2CF953041F48091E800BD
:100EC00080FFFCCF20682093E300B5CF963009F077
:100ED000A9C00B8D1C8D22E01092E9001092C9016F
:100EE0001092C801F2122EC01092C7011092C601D2
:100EF0000E94D5011F8299E09983FA8291E09E8336
:100F000090EA98879AEF99872091C8013091C9019A
:100F1000275F3F4F3C832B838D831092E900109213
:100F2000C9011092C8011093C7010093C60149E09E
:100F300050E0BE016F5F7F4F80E00E94AF010E94D2
:100F4000D50179CF1093C7010093C6010E943A01E1
:100F5000DC0112960D911C910115110509F451C186
:100F6000D801ED91FC910480F581E02DBE016B5E0E
:100F70007F4FC8010995009709F03EC1F80100852F
:100F80001185EACFF3E0FF120EC08F89882309F4A0
:100F900040C0823061F440E860E187E991E00E945E
:100FA0007C01811148CF81E28093EB0047CF8130F3
:100FB00029F440E86BE08BE891E0F1CF833099F7BA
:100FC0000E943A01DC011296ED90FC908E010F5FB9
:100FD0001F4F6801E114F10479F0D701ED91FC9104
:100FE0000680F781E02DB801C7010995080F111D92
:100FF000F701E084F184EECFD8011C92F601019054
:101000000020E9F73197BF016C197D0940E0C60166
:10101000C6CF65E771E0FB01449150E080E80E9493
:10102000AF0109CF973009F4BECF983021F481E0A9
:101030008093F10000CF993009F0FDCE837009F064
:10104000B2CFE9E2F1E081E031E096E321912223A1
:1010500071F08093E9003093EB00DF0111972C9140
:101060002093EC009093ED008F5F873079F78EE747
:101070008093EA001092EA008F898093DB01DBCE37
:101080008B8D9C8D1092E9001092C9011092C801BD
:101090009093C7018093C601898D811192C08E897A
:1010A0009D89913A49F4813209F07DCF47E050E0C3
:1010B00064E071E080E0B3CF913209F074CF833205
:1010C00069F48F89988DB0E0A0E08093000190933F
:1010D0000101A0930201B0930301ADCE803269F407
:1010E0008091E80082FFFCCF67E084E091E00E94FD
:1010F00006028BEF8093E8009ECE823209F09BCEF1
:101100008F8980930B01EEEFFFE7859194918B3FE0
:101110009C4D51F1E0E0F8E08091040190910501CF
:10112000A0910601B0910701803B9440A105B10553
:10113000F1F480910B0180FD1AC0EE3F8AE0F807C0
:1011400089F587E797E7918380838091600080939A
:10115000CA0188E19BE00FB6F894A89580936000DF
:101160000FBE9093600067CEEEEFFAE0D5CF80819E
:1011700091818737974709F05ECEA89580916000EE
:101180008861809360008091CA0180936000EE3F87
:101190002AE0F20789F08091FE0A9091FF0A91837C
:1011A000808349CE808191818737980751F290934F
:1011B000FF0A8093FE0AC5CF1092FF0A1092FE0A22
:1011C0003ACE0E943A01DC0112960D911C91011554
:1011D000110509F4E8CED801ED91FC910190F08160
:1011E000E02DBE016B5E7F4FC8010995811123CEB2
:1011F000F80100851185EBCF181619060CF41BCEEB
:10120000D2CEF1E0FF12BECE69E771E004CF1F92AB
:101210000F920FB60F9211242F933F938F939F93AA
:10122000AF93BF938091BE019091BF01A091C00187
:10123000B091C1013091BD0123E0230F2D3758F546
:101240000196A11DB11D2093BD018093BE01909315
:10125000BF01A093C001B093C1018091C2019091E0
:10126000C301A091C401B091C5010196A11DB11D9A
:101270008093C2019093C301A093C401B093C501B0
:10128000BF91AF919F918F913F912F910F900FBE82
:101290000F901F90189526E8230F0296A11DB11DEF
:1012A000D2CF1F920F920FB60F9211242F933F931C
:1012B0004F935F936F937F938F939F93AF93BF935E
:1012C000EF93FF938091B900887F803609F44AC07C
:1012D000F0F5883209F4A5C018F5803109F499C0F9
:1012E000B8F4882309F4F5C0883009F492C0FF915E
:1012F000EF91BF91AF919F918F917F916F915F918E
:101300004F913F912F910F900FBE0F901F90189506
:10131000883109F486C0803251F78093960114C059
:10132000803409F49BC040F48033B9F38833F9F674
:101330008093960185ECAEC0803509F483C0883572
:1013400009F494C0883499F60E94E705D0CF883913
:1013500009F48AC038F5883729F050F4883611F03E
:10136000803729F683E0809397011092950155C04C
:10137000883809F479C0803919F0803809F0B7CF7E
:1013800080919501803208F06FC0E091950181E075
:101390008E0F809395018091BB00F0E0EB58FE4FDB
:1013A00080833BC0803B39F0D0F4803A09F477C0A9
:1013B000883A09F09CCF84E08093970110927401E1
:1013C00010927301F0E0E0E00995809173018111C2
:1013D0000FC081E0809373011092530109C0803CDB
:1013E00009F4A8CF883C09F4A5CF883B09F07FCF4A
:1013F000E091740181E08E0F80937401F0E0ED5A6A
:10140000FE4F80818093BB009091740180917301A5
:1014100029C08091BC018093BB0085EC8093BC0007
:1014200066CF9091BB018091BA01981758F5E09171
:10143000BB0181E08E0F8093BB01F0E0E656FE4FCA
:101440008081E9CFE091BB0181E08E0F8093BB01E9
:101450008091BB00F0E0E656FE4F80839091BB0187
:101460008091BA019817C8F285E8D8CFE091BB0106
:1014700081E08E0F8093BB018091BB00F0E0E656C7
:10148000FE4F80838091990181115ECF81E080932E
:10149000980184EA8093BC001092970128CF85ECD4
:1014A0008093BC001092970180919501803230F4B6
:1014B000E0919501F0E0EB58FE4F108260919501AC
:1014C00070E085E791E0F0E0E0E009951092950189
:1014D0000ECF1092960138CF0F931F93CF93DF93C7
:1014E000EC01062F142F28838FEF89831A8A198A1B
:1014F0001C8A1B8A30E0F901EB50FF4F44912A52BD
:101500003F4FF90184918823C9F090E0880F991F1B
:10151000FC01E654FF4FA591B491FC01E853FF4F45
:10152000259134919FB7F8948C91E42FE0958E2308
:101530008C93D9018C91E823EC939FBF87E490E0D2
:101540000E94330CDC0113961C921E92129748EEF7
:1015500053E060E070E014964D935D936D937C933F
:10156000179786E191E011969C938E931C960C93AD
:101570001C971D961C931D9781E05F968C935F9737
:1015800090968C93909782E090E05E969C938E93D9
:101590005D9791964D935D936D937C939497202FD7
:1015A00030E0F901EA52FF4F84912B503F4FF9018F
:1015B00024911E962C931E9790E0880F991FFC0192
:1015C000E853FF4F2591349151963C932E935097B9
:1015D000FC01E654FF4F2591349155963C932E9390
:1015E0005497FC01E455FF4F8591949159969C9333
:1015F0008E935897212F30E0F901EA52FF4F8491E2
:101600002B503F4FF90124911F962C931F9790E088
:10161000880F991FFC01E853FF4F25913491539691
:101620003C932E935297FC01E654FF4F2591349141
:1016300057963C932E935697FC01E455FF4F8591A6
:1016400094915B969C938E935A97BC8BAB8BDF9156
:10165000CF911F910F910895EF92FF921F93CF9317
:10166000DF93ECEDF1E01382128288EE93E0A0E0CC
:10167000B0E084839583A683B78383E391E091836D
:1016800080838FEF9FEF95878487C9E6D2E085E45A
:10169000E82E81E0F82EF982E88211E0188B1F868F
:1016A0001E861A861B861C861D860E94CE036E83AC
:1016B0007F8388879987DA8BC98B1A821B821C8269
:1016C0001D826A877B878C879D87C6E5D2E0F98279
:1016D000E882188B1F861E861A861B861C861D862E
:1016E0000E94CE036E837F8388879987DA8BC98BAC
:1016F0001A821B821C821D826A877B878C879D874A
:1017000024E043E062E081E492E00E946C0A22E17E
:1017100046E065E08CE292E0DF91CF911F91FF906F
:10172000EF900C946C0A789484B5826084BD84B583
:10173000816084BD85B5826085BD85B5816085BDCC
:1017400080916E00816080936E0010928100809184
:10175000810082608093810080918100816080930C
:101760008100809180008160809380008091910051
:1017700082608093910080919100816080939100BC
:10178000809190008160809390008091C10084607E
:101790008093C1008091C10082608093C1008091DC
:1017A000C10081608093C1008091C30081608093FB
:1017B000C3008091C00082608093C0008091C2000D
:1017C00081608093C20080917A00846080937A0067
:1017D00080917A00826080937A0080917A008160A3
:1017E00080937A0080917A00806880937A001092CA
:1017F000DB011092CD011092CC018091D700816065
:101800008093D70080EA8093D80089B5806189BD34
:1018100089B5826089BD09B400FEFDCF0E94350301
:101820008091D8008F7C80618093D8008091E00007
:10183000807F8093E0008091E1008E7E8093E100C4
:101840008DE08093E200559A209A8FEF9FEF90935E
:10185000E9018093E8010E94580DEE0FFF1F0590EB
:10186000F491E02D09940F931F93CF93DF9382306F
:10187000910510F482E090E0E0917E02F0917F0209
:1018800030E020E0B0E0A0E0309799F42115310578
:1018900009F44AC0281B390B24303105D8F58A8158
:1018A0009B816115710589F1FB0193838283FE01A0
:1018B00011C0408151810281138148175907E0F01E
:1018C0004817590799F4109761F012960C931297E4
:1018D00013961C933296CF01DF91CF911F910F91F8
:1018E000089500937E0210937F02F4CF21153105F5
:1018F00051F04217530738F0A901DB019A01BD01ED
:10190000DF01F801C1CFEF01F9CF90937F028093FF
:101910007E02CDCFFE01E20FF31F819391932250FF
:10192000310939832883D7CF20917C0230917D0201
:10193000232B41F420910E0130910F0130937D0251
:1019400020937C0220910C0130910D01211531056D
:1019500041F42DB73EB74091100150911101241B65
:10196000350BE0917C02F0917D02E217F307A0F4C1
:101970002E1B3F0B2817390778F0AC014E5F5F4FE5
:101980002417350748F04E0F5F1F50937D02409398
:101990007C02819391939FCFF0E0E0E09CCFCF93C6
:1019A000DF930097E9F0FC01329713821282A09135
:1019B0007E02B0917F02ED0130E020E01097A1F4AB
:1019C00020813181820F931F20917C0230917D0212
:1019D0002817390709F061C0F0937D02E0937C027B
:1019E000DF91CF910895EA01CE17DF07E8F54A812C
:1019F0005B819E0141155105B1F7E901FB83EA8343
:101A000049915991C40FD51FEC17FD0761F48081EE
:101A100091810296840F951FE901998388838281C1
:101A200093819B838A83F0E0E0E012968D919C91F4
:101A300013970097B9F52D913C911197CD0102961E
:101A4000820F931F20917C0230917D022817390765
:101A500039F6309751F510927F0210927E02B093C2
:101A60007D02A0937C02BCCFD383C283408151818D
:101A7000840F951FC817D90761F44E5F5F4F8881A7
:101A80009981480F591F518340838A819B81938399
:101A900082832115310509F0B0CFF0937F02E093E6
:101AA0007E029ECFFD01DC01C0CF13821282D7CF10
:0E1AB00081E090E0F8940C945D0DF894FFCF67
:101ABE00FFFFFFFF00E100000000000000008002B9
:101ACE00800000000000CC04A704E40547049C0439
:101ADE0071048904BD055C0600C180810000000010
:101AEE0000000013024D03340229027A0238025616
:0C1AFE0002000000000E04FD03DA0300EB
:00000001FF
